:020000040800F2
:1000000000460020314800082DE700081D48000880
:100010001D4800081D4800081D4800080000000099
:10002000000000000000000000000000654800081B
:100030001D48000800000000314B0008D58B000867
:10004000E94B0008E94B0008E94B0008E94B0008C0
:10005000E94B0008E94B0008E94B0008E94B0008B0
:10006000E94B0008E94B0008E94B0008E94B0008A0
:10007000E94B0008E94B0008E94B0008E94B000890
:10008000E94B0008E94B0008E94B0008E94B000880
:10009000E94B0008E94B0008E94B0008E94B000870
:1000A000E94B0008E94B0008E94B0008E94B000860
:1000B000E94B0008E94B0008E94B0008E94B000850
:1000C000E94B0008E94B0008E94B0008E94B000840
:1000D000E94B0008E94B0008E94B0008E94B000830
:1000E000E94B0008E94B0008E94B0008E94B000820
:1000F000E94B0008E94B0008E94B0008E94B000810
:10010000E94B0008E94B0008E94B0008E94B0008FF
:10011000E94B0008E94B0008E94B0008E94B0008EF
:10012000E94B0008E94B0008E94B0008E94B0008DF
:10013000E94B0008E94B0008E94B0008E94B0008CF
:10014000E94B0008E94B0008E94B0008E94B0008BF
:10015000E94B0008E94B0008E94B0008E94B0008AF
:08016000E94B0008E94B00081F
:1001680081F0004102E000BF83F0004330B54FEA60
:1001780041044FEA430594EA050F08BF90EA020FCD
:100188001FBF54EA000C55EA020C7FEA645C7FEA60
:10019800655C00F0E2804FEA5454D4EB5555B8BF83
:1001A8006D420CDD2C4480EA020281EA030382EAF4
:1001B800000083EA010180EA020281EA0303362D86
:1001C80088BF30BD11F0004F4FEA01314FF4801C59
:1001D8004CEA113102D0404261EB410113F0004F6B
:1001E8004FEA03334CEA133302D0524263EB430322
:1001F80094EA050F00F0A780A4F10104D5F1200EC0
:100208000DDB02FA0EFC22FA05F2801841F100011A
:1002180003FA0EF2801843FA05F359410EE0A5F1EE
:1002280020050EF1200E012A03FA0EFC28BF4CF01F
:10023800020C43FA05F3C01851EBE37101F00045D5
:1002480007D54FF0000EDCF1000C7EEB00006EEBE2
:100258000101B1F5801F1BD3B1F5001F0CD349086C
:100268005FEA30004FEA3C0C04F101044FEA4452C3
:1002780012F5800F80F09A80BCF1004F08BF5FEA4A
:10028800500C50F1000041EB045141EA050130BD2A
:100298005FEA4C0C404141EB0101013C28BFB1F53C
:1002A800801FE9D291F0000F04BF01460020B1FA87
:1002B80081F308BF2033A3F10B03B3F120020CDA5A
:1002C8000C3208DD02F1140CC2F10C0201FA0CF038
:1002D80021FA02F10CE002F11402D8BFC2F1200C9D
:1002E80001FA02F120FA0CFCDCBF41EA0C01904053
:1002F800E41AA2BF01EB0451294330BD6FEA04049C
:100308001F3C1CDA0C340EDC04F11404C4F1200286
:1003180020FA04F001FA02F340EA030021FA04F398
:1003280045EA030130BDC4F10C04C4F1200220FAEF
:1003380002F001FA04F340EA0300294630BD21FA2D
:1003480004F0294630BD94F0000F83F4801306BFF3
:1003580081F480110134013D4EE77FEA645C18BFE7
:100368007FEA655C29D094EA050F08BF90EA020F7E
:1003780005D054EA000C04BF1946104630BD91EA76
:10038800030F1EBF0021002030BD5FEA545C05D179
:100398004000494128BF41F0004130BD14F58004B8
:1003A8003CBF01F5801130BD01F0004545F0FE412C
:1003B80041F470014FF0000030BD7FEA645C1ABF61
:1003C800194610467FEA655C1CBF0B46024650EA98
:1003D800013406BF52EA033591EA030F41F40021C4
:1003E80030BD00BF90F0000F04BF0021704730B54A
:1003F8004FF4806404F132044FF000054FF000011F
:1004080050E700BF90F0000F04BF0021704730B5DF
:100418004FF4806404F1320410F0004548BF4042B4
:100428004FF000013EE700BF42004FEAE2014FEA09
:1004380031014FEA02701FBF12F07F4393F07F4FE4
:1004480081F06051704732F07F4208BF704793F0E7
:100458007F4F04BF41F40021704730B54FF46074FA
:1004680001F0004521F000411CE700BF50EA0102FD
:1004780008BF704730B54FF000050AE050EA0102A6
:1004880008BF704730B511F0004502D5404261EB16
:1004980041014FF4806404F132045FEA915C3FF457
:1004A800D8AE4FF003025FEADC0C18BF03325FEAF4
:1004B800DC0C18BF033202EBDC02C2F1200300FAA5
:1004C80003FC20FA02F001FA03FE40EA0E0021FACA
:1004D80002F11444BDE600BF70B54FF0FF0C4CF4B8
:1004E800E06C1CEA11541DBF1CEA135594EA0C0F6A
:1004F80095EA0C0F00F0DEF82C4481EA030621EAA5
:100508004C5123EA4C5350EA013518BF52EA0335DF
:1005180041F4801143F4801338D0A0FB02CE4FF091
:100528000005E1FB02E506F00042E0FB03E54FF0C1
:100538000006E1FB03569CF0000F18BF4EF0010EB9
:10054800A4F1FF04B6F5007F64F5407404D25FEAB5
:100558004E0E6D4146EB060642EAC62141EA555168
:100568004FEAC52040EA5E504FEACE2EB4F1FD0CAA
:1005780088BFBCF5E06F1ED8BEF1004F08BF5FEA28
:10058800500E50F1000041EB045170BD06F00046DA
:1005980046EA010140EA020081EA0301B4EB5C0487
:1005A800C2BFD4EB0C0541EA045170BD41F480117F
:1005B8004FF0000E013C00F3AB8014F1360FDEBFA4
:1005C800002001F0004170BDC4F10004203C35DA80
:1005D8000C341BDC04F11404C4F1200500FA05F303
:1005E80020FA04F001FA05F240EA020001F00042A4
:1005F80021F0004110EBD37021FA04F642EB06011A
:100608005EEA430E08BF20EAD37070BDC4F10C0443
:10061800C4F1200500FA04F320FA05F001FA04F207
:1006280040EA020001F0004110EBD37041F10001F3
:100638005EEA430E08BF20EAD37070BDC4F12005FE
:1006480000FA05F24EEA020E20FA04F301FA05F266
:1006580043EA020321FA04F001F0004121FA04F20E
:1006680020EA020000EBD3705EEA430E08BF20EADE
:10067800D37070BD94F0000F0FD101F00046400018
:1006880041EB010111F4801F08BF013CF7D041EA9A
:10069800060195F0000F18BF704703F0004652009E
:1006A80043EB030313F4801F08BF013DF7D043EA6F
:1006B8000603704794EA0C0F0CEA135518BF95EA25
:1006C8000C0F0CD050EA410618BF52EA4306D1D1AC
:1006D80081EA030101F000414FF0000070BD50EACB
:1006E800410606BF1046194652EA430619D094EA55
:1006F8000C0F02D150EA013613D195EA0C0F05D13F
:1007080052EA03361CBF104619460AD181EA030192
:1007180001F0004141F0FE4141F470014FF000004A
:1007280070BD41F0FE4141F4780170BD70B54FF0E5
:10073800FF0C4CF4E06C1CEA11541DBF1CEA135565
:1007480094EA0C0F95EA0C0F00F0A7F8A4EB050447
:1007580081EA030E52EA03354FEA013100F088803E
:100768004FEA03334FF0805545EA131343EA126307
:100778004FEA022245EA111545EA10654FEA0026BC
:100788000EF000419D4208BF964244F1FD0404F575
:10079800407402D25B084FEA3202B61A65EB0305D1
:1007A8005B084FEA32024FF480104FF4002CB6EB8E
:1007B800020E75EB030E22BFB61A754640EA0C000E
:1007C8005B084FEA3202B6EB020E75EB030E22BF4E
:1007D800B61A754640EA5C005B084FEA3202B6EB8F
:1007E800020E75EB030E22BFB61A754640EA9C004E
:1007F8005B084FEA3202B6EB020E75EB030E22BF1E
:10080800B61A754640EADC0055EA060E18D04FEADB
:10081800051545EA16754FEA06164FEAC30343EA7B
:1008280052734FEAC2025FEA1C1CC0D111F4801F48
:100838000BD141EA00014FF000004FF0004CB6E741
:1008480011F4801F04BF01430020B4F1FD0C88BFE0
:10085800BCF5E06F3FF6AFAEB5EB030C04BFB6EBEB
:10086800020C5FEA500C50F1000041EB045170BDDE
:100878000EF0004E4EEA113114EB5C04C2BFD4EB0B
:100888000C0541EA045170BD41F480114FF0000E8F
:10089800013C90E645EA060E8DE60CEA135594EA0B
:1008A8000C0F08BF95EA0C0F3FF43BAF94EA0C0F0E
:1008B8000AD150EA01347FF434AF95EA0C0F7FF483
:1008C80025AF104619462CE795EA0C0F06D152EAD7
:1008D80003353FF4FDAE1046194622E750EA4106BB
:1008E80018BF52EA43067FF4C5AE50EA41047FF4CC
:1008F8000DAF52EA43057FF4EBAE12E74FEA41022F
:10090800B2F1E04324BFB3F5001CDCF1FE5C0DD965
:1009180001F0004C4FEAC0024CEA5070B2F1004FAF
:1009280040EB830008BF20F00100704711F0804FB2
:1009380021D113F13872BCBF01F00040704741F477
:1009480080114FEA5252C2F11802C2F1200C10FA7B
:100958000CF320FA02F018BF40F001004FEAC1235F
:100968004FEAD32303FA0CFC40EA0C0023FA02F303
:100978004FEA4303CCE77FEA625307D150EA0133D9
:100988001EBF4FF0FE4040F44000704701F00040A9
:1009980040F0FE4040F40000704700BF80F0004087
:1009A80002E000BF81F0004142001FBF5FEA41033F
:1009B80092EA030F7FEA226C7FEA236C6AD04FEA3F
:1009C8001262D2EB1363C1BFD21841404840414084
:1009D800B8BF5B42192B88BF704710F0004F40F436
:1009E800000020F07F4018BF404211F0004F41F452
:1009F800000121F07F4118BF494292EA030F3FD01E
:100A0800A2F1010241FA03FC10EB0C00C3F1200330
:100A180001FA03F100F0004302D5494260EB4000BF
:100A2800B0F5000F13D3B0F1807F06D340084FEA2A
:100A3800310102F10102FE2A51D2B1F1004F40EB1F
:100A4800C25008BF20F0010040EA03007047490087
:100A580040EB0000013A28BFB0F5000FEDD2B0FA24
:100A680080FCACF1080CB2EB0C0200FA0CF0AABF47
:100A780000EBC25052421843BCBFD04018437047E5
:100A880092F0000F81F4000106BF80F400000132EB
:100A9800013BB5E74FEA41037FEA226C18BF7FEAC2
:100AA800236C21D092EA030F04D092F0000F08BF04
:100AB8000846704790EA010F1CBF0020704712F0EB
:100AC8007F4F04D1400028BF40F00040704712F12A
:100AD80000723CBF00F50000704700F0004343F08F
:100AE800FE4040F4000070477FEA226216BF0846C5
:100AF8007FEA23630146420206BF5FEA412390EA88
:100B0800010F40F4800070474FF0000304E000BF7D
:100B180010F0004348BF40425FEA000C08BF70472E
:100B280043F0964301464FF000001CE050EA0102F2
:100B380008BF70474FF000030AE000BF50EA010207
:100B480008BF704711F0004302D5404261EB4101F4
:100B58005FEA010C02BF84460146002043F0B64319
:100B680008BFA3F18053A3F50003BCFA8CF2083A3E
:100B7800A3EBC25310DB01FA02FC634400FA02FC47
:100B8800C2F12002BCF1004F20FA02F243EB02004E
:100B980008BF20F00100704702F1200201FA02FCB0
:100BA800C2F1200250EA4C0021FA02F243EB0200A3
:100BB80008BF20EADC7070477BB972B90029BEBF54
:100BC80000204FF0004106E008BF00281CBF6FF06E
:100BD80000414FF0FF3000F077B8ADF1080C6DE937
:100BE80004CE002909DB002B1ADB00F097F8DDF8AA
:100BF80004E0DDE9022304B07047404261EB4101A3
:100C0800002B1BDB00F08AF8DDF804E0DDE90223A5
:100C180004B0404261EB4101524263EB4303704729
:100C2800524263EB430300F079F8DDF804E0DDE9B4
:100C3800022304B0404261EB41017047524263EB2A
:100C4800430300F06BF8DDF804E0DDE9022304B0AB
:100C5800524263EB4303704753B94AB9002908BFAE
:100C680000281CBF4FF0FF314FF0FF3000F02CB8C8
:100C7800ADF1080C6DE904CE00F050F8DDF804E0A1
:100C8800DDE9022304B07047D0B5FFF7CDFB0C4B6C
:100C9800002206460F46FFF71FFC00F017F804462F
:100CA800FFF7A0FB074B0022FFF716FC02460B4696
:100CB80030463946FFF758FA00F008F82146D0BD0B
:100CC8000000F03D0000F041704700BF4A0011D21B
:100CD80012F5001211D20DD56FF47873B3EB62528E
:100CE8000ED44FEAC12343F0004343EA505323FA9A
:100CF80002F070474FF00000704750EA013002D10F
:100D08004FF0FF3070474FF000007047034613F86C
:100D1800012B002AFBD1181A013870472DE9F0473A
:100D28008C468E46089E154604461946002B40F010
:100D3800D080724547D9B2FA82F74FB1C7F1200384
:100D48000EFA07FC20FA03F3BD4043EA0C0CBC4042
:100D58004FEA154EA8B2BCFBFEF8230C0EFB18CCCC
:100D680008FB00F943EA0C43994528D9EB1808F128
:100D7800FF3204D2994502D9A8F102022B44A3EB11
:100D88000903A4B2B3FBFEFC0EFB1C330CFB00F002
:100D980044EA0344A04214D92C190CF1FF3304D2BD
:100DA800A04202D9ACF102032C44241A43EA0240BF
:100DB8001EB1FC40002334607360BDE8F0874246F2
:100DC800DDE76346F1E7002A79D0B2FA82F3002B17
:100DD8003FD01946C1F1200302FA01F52EFA03F2B9
:100DE8000EFA01FE20FA03F343EA0E034FEA154E0A
:100DF80000FA01F4B2FBFEFCAFB20EFB1C201A0C89
:100E08000CFB07F842EA004290455AD9AA180CF19F
:100E1800FF3004D2904502D9ACF102002A44A2EB7B
:100E280008029BB2B2FBFEFC0EFB1C220CFB07F770
:100E380043EA02439F4246D9EB180CF1FF3204D231
:100E48009F4202D9ACF102022B44DB1B42EA00426A
:100E580002E0AEEB020301224FEA154EAFB2B3FB3C
:100E6800FEFC200C0EFB1C330CFB07F840EA034386
:100E780098452AD9EB180CF1FF3004D2984502D9CD
:100E8800ACF102002B44A3EB0803A4B2B3FBFEFCB5
:100E98000EFB1C330CFB07F744EA0344A74216D9A0
:100EA8002C190CF1FF3304D2A74202D9ACF102038A
:100EB8002C44E41B43EA00400F46114678E71F2103
:100EC80088E76046ABE76246BFE76046DBE7634614
:100ED800EFE7734506D916B9002108466DE7C6E95C
:100EE800000EF9E7B3FA83F787B9734501D3824255
:100EF80007D8841A6EEB030301209C461EB9002113
:100F08005BE73846FAE7C6E9004CF8E7C7F1200C7A
:100F1800BB4022FA0CF51D4320FA0CF12EFA0CF313
:100F28000EFA07FE41EA0E014FEA154900FA07F4E6
:100F3800B3FBF9F81FFA85FE09FB18300B0C08FB08
:100F48000EFA43EA00439A4502FA07F240D9EB1831
:100F580008F1FF3004D29A4502D9A8F102002B44C7
:100F6800A3EB0A0389B2B3FBF9F809FB183308FBB2
:100F78000EFE41EA03418E452CD9691808F1FF336A
:100F880004D28E4502D9A8F10203294443EA00405D
:100F9800A0FB0298A1EB0E014145CE46434602D381
:100FA80006D14C4504D2B9EB020E68EB05030138B3
:100FB800002EA4D0B4EB0E0261EB030101FA0CFC85
:100FC80022FA07F34CEA0303F940C6E9003196E731
:100FD8004046C5E74346D9E72DE9F04F89B00546B5
:100FE800049116460593836806AA5B68984700280B
:100FF80032DBDDE9064A204BDFF88080A4FB03B230
:1010080003FB0A230393039919A3D3E90023584642
:10101800FFF722FE4FF0FF39039BD94578EB030316
:1010280007461CD3A6FB04B406FB0A4410A3D3E965
:10103800002321465846FFF70FFED94578EB0404F4
:1010480003460CD387420DD3AA680599009114680A
:1010580004993A462846A04709B0BDE8F08F6FF0DA
:101068008500F9E76FF01500F6E700BFAFF30080E1
:1010780000CA9A3B00000000404B4C00FFC99A3B55
:10108800F0B5054687B00E46144683684C21DB68E8
:10109800984700284ADBAB686A461B6931462846F0
:1010A8009847002842DB0198FFF7ACF920A3D3E961
:1010B8000023FFF73BFB064600980F46FFF7A2F90F
:1010C80002460B4630463946FFF750F8FFF716FC44
:1010D80020600398FFF796F915A3D3E90023FFF7DB
:1010E80025FB064602980F46FFF78CF902460B4689
:1010F80030463946FFF73AF8FFF700FC606005987C
:10110800FFF780F90AA3D3E90023FFF70FFB064690
:1011180004980F46FFF776F902460B4630463946E3
:10112800FFF724F8FFF7EAFBA060002007B0F0BD46
:101138000000000080842E412DE9F0472DED088B3A
:10114800044682B0002800F06682D54E024603218C
:101158003046FFF795FF0546002840F0DC80B3686D
:101168006A461B690C2130469847002840F0D98010
:101178000198FFF747F9C8A3D3E90023FFF7D6FA88
:10118800064600980F46FFF73DF902460B463046E3
:101198003946FEF7EBFFFFF7B1FB206304F10C02C1
:1011A800C0480721FFF76CFF0546002840F0B380D0
:1011B80004F1180000F00EFC0546002840F0AB8052
:1011C8000FF031FCB84BB94FA0FB039603FB016647
:1011D8003B78C4E90E965BB3D4ED0C8AF4EE688ACA
:1011E800F1EE10FA24D6DFF81483DFF814A39FED8C
:1011F800B08AD8E9000150EA010304D0484571EBF0
:101208000603C0F0908078EE687A0023A94AAA48BD
:10121800CAED007A0121C8E90096FFF7DDFE031E3A
:1012280006DAA64AA64802210DF0EFF900233B7022
:1012380094ED010A94ED00AAD4ED020A9FEDA17A7B
:1012480020EE008A60EEA0AAF0EE487A4AEE0A7A0A
:1012580077EEAA7AF4EEC77AF1EE10FA00F1088177
:1012680094ED07BA94ED069AD4ED089A6BEE0B7AD2
:1012780049EE097A49EEA97AF4EEC77AF1EE10FA46
:1012880000F1F6800BF016FF78EE2A0AF0EE408A9D
:10129800F1EEE00AB1EE4A0A0BF00CFFB0EE408A1C
:1012A800B0EE680A0CF02AF9F0EE40BAB0EE680A1F
:1012B8000BF0C0FFF0EE40AAB0EE480A0CF01EF9A1
:1012C800B0EE40AAB0EE480A0BF0B4FF6BEE0A7A13
:1012D80069EE000A47EEAB0A29EE8AAA29EEAB0AA4
:1012E8004AEE2A0A0BEE6A0A0BF0E4FE0122B0EE7F
:1012F800407A754B1978002900F0C280002A40F026
:101308000181D4E90E015A686262C3E904019A684E
:10131800DB68A262E362284602B0BDEC088BBDE838
:10132800F0876A4839E7B9EB000066EB0101FFF77F
:10133800FDFBDFED677A06EE900A86EEA77AB5EE3A
:10134800C07AF1EE10FA40F28E80F7EE007AB4EE31
:10135800677ADFED607AF1EE10FAC8BFB0EE677A0F
:101368009FED5D6A5D4BDFED5E5A93ED005A78EEB6
:10137800687AF0EEE76AF4EE466AF1EE10FADAED12
:10138800006A98BFF0EE467A77EEE66A67EEA55AED
:1013980066EE866AB3EE046A27EE866AC6EE874A68
:1013A800F0EE456A46EE076A9FED4E7AF4EEC76A9C
:1013B800F1EE10FA08DC9FED4C7AF4EEC76AF1EE14
:1013C80010FA58BFB0EE667A75EE876A9FED476AE5
:1013D80076EEA46AF4EEC66AF1EE10FA0CDD27EE9A
:1013E800854AB5EEC04AF1EE10FAC2BF75EE855ACD
:1013F800B0EE457A75EEA46AF5EEC06AF1EE10FA21
:10140800C8E9009683ED007ACAED007A2ED4F4EE8E
:10141800C66AF1EE10FAD4BF16EE900A16EE100A5C
:10142800FFF732FC324BA0FB030203FB0121FFF75D
:101438007DFB9FED307A06EE900AC6EE877A00268D
:1014480033461D480121FCEEE77A17EE902AFFF794
:10145800C3FD031EBFF6ECAE274A194802210DF062
:10146800D4F83E70E4E69FED1B7A79E70020D7E7D1
:101478009FED197A0022B0EE478AF0EE478A38E7E6
:10148800002A3FF43EAF0122C3ED018A83ED028AB0
:1014980083ED037A1A7034E70000000080842E413F
:1014A800441101086011010840420F00B01A0020E1
:1014B8000000204280841E00D4100108C62B0108B9
:1014C8009C1B0108BD378635600900200000C07FDD
:1014D800286B6E4E0AD7A33C00000000B41400200D
:1014E80000007A4400009643000096C30000FA44C6
:1014F800404B4C0000409C45EA2B0108580900204D
:10150800B0140020D3E9040650EA06026FD0D4E9EB
:101518000E21904276EB010769D2121A3F4861EB1F
:10152800060190424FF00000884160D307EE902AF0
:101538009FED3B6A93ED015AD3ED025AF8EEE77A34
:10154800C7EE866AD4ED037A94ED056A06EEA75ACB
:10155800D4ED047A46EEA75AD3ED037A46EE867A9E
:101568009FED306ADFED306AF4EEC67AF1EE10FADC
:101578003FDCDFED2E6ADFED2C4AF4EEE67AF1EE81
:1015880010FA39D49FED2A4ADFED2A4A68EE848A98
:1015980028EE048A05EEA48A45EE248A37EE677A97
:1015A800DFED215AC3ED018A83ED028AB4EEC67AD3
:1015B800F1EE10FA23DCDFED1C5AB4EEE67AF1EE18
:1015C80010FA1FD4DFED1C5A47EE257A9FED167AE4
:1015D800F4EEC67AF1EE10FA17DC9FED137AF4EE0A
:1015E800E67AF1EE10FA13D4C3ED037A89E6134ACA
:1015F8009CE777EEE67AB7E777EEA47ABDE737EEB1
:10160800657AD3E737EE257AD7E777EEC77ADFE74B
:1016180077EE877AE3E76FF015057CE600E1F505DC
:10162800286B6E4EDB0F4940DB0FC940DB0F49C00A
:1016380000D7A33C48E17A3FD0CC4C3D80841E00C3
:10164800032937B5044615463DD83AB3072A3AD197
:101658005A681D682048D1171346C5FB0031012B75
:1016680071F1000212DB00F56E1000F65D701818BB
:1016780017A3D3E9002341F10001FFF79DFA0146C2
:10168800204603B0BDE8304005F074BD1348181873
:1016980061F100010EA3D3E90023EEE75968188829
:1016A8004FF47A7291FBF2F189B205F0FDFE04283D
:1016B80007DDC0B200900F232A46402120460EF0D5
:1016C80050F803B030BD6FF08500FAE7AFF3008043
:1016D8003AA395000000000040420F00632EB5FFBA
:1016E8000439032938B5044602D96FF0850038BD9E
:1016F8003AB3072AF9D15A6819681F4BD017C1FBAA
:101708000320B425A2FB0531012A05FB001170F165
:1017180000000EDB1948181815A3D3E9002341F17E
:101728000001FFF749FA81B22046BDE8384005F0CC
:1017380025BE1348181861F100010DA3D3E9002351
:10174800EFE7596818884FF47A7291FBF2F189B281
:1017580005F0AAFE0028CADB0728C6D8C2B21021A5
:101768002046BDE838400EF084B800BFAFF30080D3
:10177800D8EF2F000000000040420F00ECF71700E0
:101788001408E8FF000000002DE9F74F019189B225
:101798000729DDF83080D2F800900446164657D164
:1017A800BDF80620002A53D1002B51D0827A002A96
:1017B80051D0827B4A454ED9417BC07A01F07F01E6
:1017C80008B1002947D08A42A8BF0A462189DFF814
:1017D80098A0C1F1060188F81010D4E900014B4423
:1017E8009342C8E9000128BF13464FF4FA6B0093EF
:1017F80000273368A3EB090503EB43033B44083395
:1018080007EB850534F9130080FB0B01890241EAD7
:1018180090518002A0FB0A0C11A3D3E900230AFB14
:1018280001C1FFF7C9F9043508EB85050137032F16
:10183800A860DED13068009B013098423060D7D371
:10184800A0EB090080B2A8F8080003B0BDE8F08F4B
:101858006FF01500F9E76FF03C00F6E7AFF3008092
:101868000095BA0A00000000D8EF2F000000000021
:1018780038B5074CA0FB040503A3D3E9002304FBF8
:101888000151FFF7E9F938BD007A030A00000000AA
:1018980000CA9A3B08B50C4A0C4803210CF0ACFE70
:1018A8000021C82009F042FB00F0A0F9031E04DA69
:1018B800074A064801210CF0A8FE00214FF47A706F
:1018C80009F034FBF9E700BF4A2901084C1B01085D
:1018D8006F2901082DE9F041334D28460EF0B4FF79
:1018E80048B9324A324801210CF086FE6FF01204E2
:1018F8002046BDE8F081D5F80480AE68D8F80030FD
:101908002F6959060ED42B492B4A2C4840F20F4315
:101918000CF067FB2A480CF064FB40F20F412648A4
:101928000CF056FB3B68274A43F040033B603368A2
:10193800062128469847041E06DA234A23461C48EF
:1019480001210CF062FED3E73220002109F0EEFA03
:10195800D8F800305A060CD41649174A174840F2EE
:101968009B630CF03EFB16480CF03BFB40F29B617E
:10197800D5E73B685B064FF0400154BF3369F36815
:10198800284698470028044602DA104A0346D6E754
:101998000021322009F0CAFA0D4A054803210CF04B
:1019A8002BFE0024A4E700BFBC0F01089229010800
:1019B800A41B0108DF290108AE2901081D2A010816
:1019C8003A2A0108010006004C2A0108722A010877
:1019D800962A010838B50546052408482A460B21E9
:1019E800FFF74EFB40B1013C14F0FF0404D0002186
:1019F800022009F09BFAF0E738BD00BF7C1101080E
:101A08007FB5002405460194029403942E480EF0F5
:101A18001BFF40B92D4A2E4801210CF0EDFD6FF057
:101A2800120004B070BD2B480EF00EFF08B92A4A08
:101A3800F1E72A480EF008FF08B9294AEBE701A8A0
:101A4800FFF7C8FF034620B1264A214802210CF0BF
:101A5800DCFD2548254E0EF0F7FE642D307028BFBA
:101A68006425E8B9224A1A4802210CF0C5FD214B29
:101A78000020002100261E705C60C3E904019C6000
:101A8800DC601D4B1C601D4B1C601D4BC3E9000135
:101A98000F481C4A2B4603210CF0B7FD3046C0E71F
:101AA8004CF250320023A5FB02210F480121FFF719
:101AB80093FA031EDBDA144A054802210CF0A5FD4F
:101AC80000233370D3E700BF44110108D92A010865
:101AD8009C1B010860110108F02A01087C1101080B
:101AE800062B0108182B0108D4100108B01A002091
:101AF8003F2B010860090020B4140020B014002016
:101B080058090020A02B01086D2B010808B5044ACC
:101B1800044801210CF070FD6FF0120008BD00BFF1
:101B28001C2C0108BC1B010808B505480EF08CFEEA
:101B380020B9FFF7EBFF6FF0120008BD0020FCE7AB
:101B48009C10010838B50446FFF7EEFFB0B9ACB1F8
:101B58000B480C4D4FF0FF324FF0FF3307F0B2FE49
:101B6800013C14F8011F21B90548BDE8384007F0C9
:101B780071BFAB6803485B689847F2E738BD00BFA0
:101B88000C0700209C100108D0B5002496B006A8C8
:101B9800FFF7D2FA024600BB1298FEF745FC06464C
:101BA80011980F46FEF740FCCDE904011098FEF7A6
:101BB8003BFCCDE902010F98FEF736FC3246CDE931
:101BC80000013B46074821460CF05FF9013400212B
:101BD8004FF4FA7009F0AAF9D9E7034821460CF046
:101BE80054F9F3E7742D0108AF2D010870B51C4EA8
:101BF800357888B095BBFFF797FF041E08DA194AB5
:101C08002346194801210CF000FD204608B070BD9C
:101C18003220FFF7F5FE041E02DA144A2346F0E7E5
:101C280000220023CDE906230723CDE90253CDE99D
:101C380000550F4B0F4904954FF4C0620E4808F049
:101C4800BDFA0E490C4808F0DBF9012333700C4A41
:101C580005484FF4FA7303210CF0D7FC0024D4E7AD
:101C6800B11A0020CC2D0108341C0108E02D010810
:101C7800911B0008001B002078090020FA2D01089C
:101C8800082E01082DE9F84F04460CF015F9B0FAB2
:101C980080F0C0F11F0004EB8006CD00D6F810904C
:101CA80005F1040A0B4606358FB2B9F1000F0AD1C7
:101CB800E268012181400A43E260336124F80A7036
:101CC8006753BDE8F88F4FEAC906043634F806B002
:101CD8004FEACB0808F1060834F8083099450CD0CB
:101CE8000A4A0B4801210CF087FC002383F3118872
:101CF800BFF36F8F0423184602DF24F80AB024F8D4
:101D0800059024F80870A753DBE700BF612E01088F
:101D1800D41B010810B500EBC10304465B88DB0740
:101D28000A460ED40CF0CDF834F83030C01A81428F
:101D380007D134F831102046511A0CF0C2F882420B
:101D48000CD0074A074801210CF056FC002383F306
:101D58001188BFF36F8F0423184602DF10BD00BF40
:101D6800852E0108D41B01082DE9F84300EBC103B7
:101D78000446DF88B94202F104080BD1012303FAB3
:101D880002F2C36823EA0203C360002340F8283044
:101D9800BDE8F883B3F804904FEAC9060636FD009B
:101DA800835B994205F1040502D1435B99420CD04B
:101DB800094A0A4801210CF01FFC002383F311880B
:101DC800BFF36F8F0423184602DF44F82870A75327
:101DD80024F80590DCE700BF612E0108D41B010838
:101DE8002DE9F84F8A4600AF002900F09A80046870
:101DF8000E1F361BF50826F0070604EB0608B8F890
:101E080002B01BF0010B16D1E94688B06A46464B72
:101E1800CDE90531032342F8103F44485B464FF4AF
:101E2800C25101F0B7FDCD468BF31188BFF36F8F18
:101E38000423184602DF294620460CF042F834F8FD
:101E48003030C01A854217D0E94688B06A46384B08
:101E5800CDE9053A032342F8103F344800234FF4F4
:101E6800C25101F097FD0023CD4683F31188BFF3DB
:101E78006F8F0423184602DFA15B2046691A0CF015
:101E880020F8A84217D0E94688B06A46294BCDE920
:101E9800053A032342F8103F244800234FF4C25167
:101EA80001F078FD0023CD4683F31188BFF36F8FCF
:101EB8000423184602DFB8F8023023F00103A8F81B
:101EC8000230294620460BF0FCFF04EBC003804695
:101ED8005B88DA070CD401462046FFF71BFF414612
:101EE80020460BF0F3FF4246294620460BF0FBFF45
:101EF800A65BAE1B04EBC6035B88DB070DD431463B
:101F08002046FFF707FF314620460BF0DFFF2A4641
:101F1800314620460BF0E7FF354629462046FFF7B5
:101F2800B1FEBD46BDE8F88F1E2F0108D41B01087D
:101F3800CE2E0108F72E0108B2F5802F2DE9F843BF
:101F48000ED33E493E4A3F4840F2DD230CF049F8A3
:101F58003D480CF046F840F2DD2139480CF038F8DD
:101F6800042A0CD83949364A36484FF439730CF0EC
:101F780038F837480CF035F84FF43971EDE7043A82
:101F8800CD1D114425F0070521F00706A6EB05082D
:101F9800B8F1170F4FEAD8070CD82E49284A294814
:101FA80040F2ED230CF01DF829480CF01AF840F225
:101FB800ED21D2E7B7FA87F4C4F12002C4F1240472
:101FC800A4000734E408631C4FF00009BB42056015
:101FD800AF60C5F80C900CD91F49194A194840F24E
:101FE80003330BF0FEFF1A480BF0FBFF40F20331FE
:101FF800B3E74946920005F110000EF042FDA2B287
:10200800530043F001036B803B1B9BB205EBC401FB
:102018005800A5F80090488025F83420A6F80290CA
:1020280025F8083005EBC70321465A8842F001021B
:102038005A802846BDE8F843FFF724BE9E2F0108C2
:10204800432F01081D2A0108B42F0108CB2F0108CE
:10205800EC2F0108053001082E30010837B50B4672
:102068001546044648B91549154A16485E230BF02B
:10207800B8FF5E2112480BF0ABFF3AB91249104A7B
:1020880010485F230BF0ADFF5F21F3E711B92B6018
:10209800002009E002688A4204D3C06801AA00F05F
:1020A8000BFF18B16FF00B0003B030BD2379019A14
:1020B8009A40A3689B18EAD1F4E700BF9030010862
:1020C800613001081D2A0108A930010838B50B46FE
:1020D8000446114658B91D491D4A1E484FF49773C6
:1020E8000BF07FFF4FF4977119480BF071FFC06830
:1020F80048B91949164A174840F22F130BF071FFD7
:1021080040F22F11F0E7A2684AB91449104A114861
:102118004FF498730BF065FF4FF49871E4E769B1D9
:1021280025688D420CD39A420DD89A1A23791A4100
:10213800954208D9BDE8384000F07CBF084638BD54
:102148006FF01500FBE76FF00D00F8E7903001081D
:10215800613001081D2A0108C2300108E330010876
:102168002DE9F04F91B08407009302F00403029325
:10217800C2F3C20303F10103DDF868A00392054628
:102188000E46059340F0C981041D002838D101F09E
:102198000706341DC6F10806009B4FF000085A1EBA
:1021A80004274FF0FF330193CDF81080C146C34692
:1021B8003B460DB1009820600598002800F3C080C8
:1021C8009C480099814203D39B488142C0F0B88063
:1021D800039911F0020CA4EB050040F0CA80B9F194
:1021E8000F0F40F2C9809549954A964840F28123DD
:1021F8000BF0F7FE94480BF0F4FE40F28121B5E0B5
:102208000729C9D86FF01B0011B0BDE8F08F7A28F4
:102218005AD84B280FD8472856D829282DD82528EA
:102228004FD051D8202818BF23280CBF4FF0010BDE
:102238004FF0000B6EE04C382E2845D8DFE800F050
:102248006A4444444444444444444444474444441D
:102258004444444444544447475454546A476844A3
:102268006A4418471844447B7947444447447900F2
:1022780000204FF0000B042734E02A38C0B20121B7
:1022880001FA00F010EA0E0F44D110F0625C2BD175
:1022980010EA010B3ED06046013C3C44B4FBF7F425
:1022A8007C4325B1A3EB050CA444B445AAD8002867
:1022B80000F096800598013805905AF8040B0090B4
:1022C80077E70199013901914FF0000B22E012F8EC
:1022D800010C6C2831D112F8023C00206C2B83468B
:1022E800C9D108273B46D7E70AF1070A2AF0070AA7
:1022F8000734BAEC027B24F0070435B10698204471
:10230800B0423FF67FAF84ED007B08344FF0000BFE
:1023180008273B4612F8010F00287AD0BBF1000FBE
:102328007FF475AF2528F5D1019B013301934FF058
:10233800010B0427EDE758469BE700208346ABE7EF
:10234800039988072FD5601B4FF0010CB0F5007F6B
:10235800FFF445AF39493A4A3A484FF41F730BF036
:1023680040FE3A480BF03DFE4FF41F7134480BF025
:102378002FFE4FF0000CE9E705B309F140010DEB22
:10238800010EC0F3870001990EF8200C0EF8101CFE
:10239800BCF1000F0ED060F07F000EF8200C08F1A1
:1023A800010809F10109C5F10801043406914FF645
:1023B800DA7EAFE7049801300490F2E7BCF1000F31
:1023C80001D00136EDE7029902360029E9D10098DB
:1023D800CDE90632FEF79AFCDDE906320644E0E76D
:1023E800042B08D10AF1040015B1DAF800102160B5
:1023F800043482468EE70AF1070323F0070303F14A
:10240800080A1DB193ED007B84ED007B0834082396
:1024180080E7631BB3F5806F1CD30849084A094855
:1024280040F2D2230BF0DDFD09480BF0DAFD40F253
:10243800D2219BE73C0E0108DC5C010873510108BE
:10244800313101081D2A0108803101085F31010876
:102458009A3101081DB9A6F10804E018D4E6029AD9
:1024680028609B082B709DF81030BAB1EB7085F886
:102478000280B8F1000F05D008A80022C5F10107B5
:1024880091450DD1C5F1010308AF4FF0000A019342
:102498000DF1300BD14512D1601BB5E66B70E6E744
:1024A80010F8013B190608D507EB040CB44503F0F6
:1024B8007F033FF6A7AE04F8013B0132E0E7B8F12D
:1024C800000F03D097F90020002A16DB029BC3B146
:1024D8001AF80B2004F8012B0022019B181910444C
:1024E800B0423FF68FAE387804F8010B009903929A
:1024F80020460EF0B8FA039A14440AF1010A01378B
:10250800C8E73A7855F822300093029B45F8223004
:102518000098FEF7FBFB421CDFE76FF00D0073E647
:102528002DE9F04F95B000AFC7E908328A46054655
:1025380058B99A499A4A9B4840F299330BF051FD91
:1025480040F2993196480BF043FD49B90378467833
:10255800807800EB83002844564521D8A0EB050A73
:10256800BB6F95F80280BC6F03F001033B61EB7809
:10257800FB61B8F1000F0CBF002404F0010413B193
:10258800BB6F9E0715D4A4B97B6A1BB13A6A514642
:1025980028469847564630465437BD46BDE8F08F22
:1025A800441C2046FEF7B2FB013020440AF1010A20
:1025B800D2E7BB6FC3F3C0037B612B78FB609B0042
:1025C8007B606B68BB60FB6805EB830B7B6A002B49
:1025D80071D15646D844ACB11C461BF8013B55F89E
:1025E8002300FEF793FBFB6F01303BB1D7F8803037
:1025F800A34282BFFB6F23F814000134C34506448D
:10260800EBD1D846BB6F13F0050F0CBF4FF0020B90
:102618004FF0010B4FF00009FB699945BBD298F8C0
:10262800013055F823A0604B9A4508F10208C0F024
:1026380080815E4B7A699A452CBF002301230AB337
:1026480018F8021CB8687B620BF094FC7B6AC8B16E
:10265800EA468AB06A46564B0593BB68CDE906310F
:102668004FF40073ADF82030524B42F8103F5248F7
:1026780000234FF4125101F08DF9023ED54609F1BD
:102688000109C9E723B13B692BB9A6EB0B06F6E7AD
:10269800BB6F9807F3D55046FEF738FBFB6F43B185
:1026A800D7F880309C423FBFFA6F431C22F81430A1
:1026B80001340644E3E7002C65D1B8F1000F68D077
:1026C800BB6F590768D5C14607F1400042465946D5
:1026D8000EF0C9F90BEB0803DFF8D0E0BB6100236B
:1026E800FA6993426AD3BA6F95F801B039699207CB
:1026F80004EB0B03DBB254BF4FEA59020022002956
:1027080040F0E180B96F11F0040F14BF4946002171
:102718006B70A970EA7079683A6A7B6A28469847AC
:10272800061EFFF638AFFB682B70FB69EB70494655
:102738003A6A7B6A85F801B085F8028007F14000A3
:102748009847B0F10009C0F2F0807B68FA69B8696F
:1027580003EB420141443A6A7B6AAAEB01019847BC
:102768000028C0F2E480B14409EB00064FF0000BEA
:1027780007F1300AA345C0F0A88000213A6A7B6AB5
:102788000846984707E7444607F130004FF000092C
:102798009CE74446C1469DE7A1469BE7B131010845
:1027A800313101081D2A01083C0E0108DC5C0108D2
:1027B800CC31010804000001641B0108B869634AB0
:1027C80010F8021BB86110F8016C55F82600904209
:1027D800C0F0B5807A6970452CBF4FF0000B4FF000
:1027E800010B3AB1B8683B600BF0C4FB3B68DFF8FB
:1027F80070E160BBBBF1000F2BD03A695AB10F2CC6
:1028080036D95349534A544840F243430BF0E9FB45
:1028180040F2434196E6BA6F520718D5B9F10F0F47
:1028280009D94E494B4A4C4840F246430BF0D9FB74
:1028380040F2464186E609F1280207F1280009F12D
:10284800010102EB000909F8106C5FFA81F9013304
:1028580046E7BA6F900715D50F2C09D93C493D4A70
:102868003D4840F24D430BF0BCFB40F24D4169E658
:1028780004F1280207F12800611C141804F8206CE0
:10288800CCB2E4E7B9F10F0F09D93449314A3248DB
:102898004FF48A630BF0A5FB4FF48A6152E609F105
:1028A800280207F1280C09F10100944407F15002AD
:1028B80052FA80F009F102090CF8101C5FFA89F944
:1028C80000F8106CC3E7002122E71BF80A3087F8EC
:1028D8002F3055F82390FB6F23B3D7F880309B45F2
:1028E80020D2FB6F33F81B803A6A7B6A012107F11B
:1028F8002F00984700281ADB0644B8F1000F06D1CC
:102908004846FEF703FA00F101081FFA88F83A6A08
:102918007B6A414648469847002808DB06440BF185
:10292800010B27E74FF00008DEE74E4633E6064680
:1029380031E67B69002B3FF4ABAE002380E67A6971
:10294800002A86D04FF0000B4CE700BF3C0E010870
:102958006F320108313101081D2A01088E32010841
:10296800DC5C0108014B1860704700BF00050020BF
:1029780038B50D460446202200210EF082F8EB6897
:10298800E361AB68A3612B6823626B686362002212
:10299800A2622A6923B1591E194208BF42F00102F6
:1029A80022610122002104F12C000DF09DFF48B1A5
:1029B80005490648064A2F230BF013FB04482F212C
:1029C8000BF006FB38BD00BFE53201081D2A0108DF
:1029D800BF3201082DE9F04F89B0CDE90123436AE0
:1029E80000278B420446884605970797BA4654D372
:1029F80000F11406EFF31185102383F31288BFF357
:102A08006F8F3046A94608F023FD58B94D4A4E4904
:102A18004E4884230BF0E5FA31464D480BF0E1FAB5
:102A2800842163E0304608F037FD079A2AB1394619
:102A380020460BF0BBFB0023079306A920460BF0AA
:102A4800DDFA06994145834630D32268236A13F894
:102A5800221021F0030103F8221003EB820A2168F7
:102A6800424620460BF0EEFAE3682060984218D000
:102A78004FF0000B304608F0F9FC50B389F3118889
:102A8800BFF36F8F059929B1A2690AB12046904713
:102A980000230593BBF1000FACD1504609B0BDE847
:102AA800F08F236943F008032361E1E718B120465A
:102AB8000BF0E2FADEE7DDE90132134339D0039186
:102AC8000DF01EFF0399A0BB9DBB304608F0CEFC5D
:102AD80078B91C4A1F491D484FF499730BF081FAC5
:102AE80031461D480BF07DFA4FF4997115480BF0EB
:102AF8006FFA85F31188BFF36F8FDDE9012304F1C5
:102B08002C0007F081F98346EFF31189102383F332
:102B18001288BFF36F8F304608F09AFC00283FF404
:102B280075AF3046BBFA8BFB08F0B6FC4FEA5B1B6F
:102B3800A0E707AB05AA204627680BF0BAFA834638
:102B480098E700BFEE3201081B3301081D2A01086F
:102B580030330108463301085D3301082DE9F0419F
:102B68000446C36908460E46984704F1140507460B
:102B7800EFF31188102383F31288BFF36F8F284671
:102B880008F066FC68B91B4A1B491C4884230BF0F3
:102B980028FA29461A480BF024FA842115480BF024
:102BA80017FA284608F078FC337843F001033370AD
:102BB80061683A4620460BF045FA606020460BF003
:102BC80010FB284608F052FC68B90A4A0D490B4820
:102BD8004FF499730BF005FA29460B480BF001FAEC
:102BE8004FF49971DAE788F31188BFF36F8FBDE866
:102BF800F08100BFEE3201081B3301081D2A0108CD
:102C080030330108463301085D3301082DE9F047E8
:102C18000446002700F11406EFF31188102383F30C
:102C28001288BFF36F8F304608F012FC054668B96A
:102C3800394A3A493A4884230BF0D3F9314639489E
:102C48000BF0CFF9842134480BF0C2F9304608F074
:102C580023FC2369A168180702D463688B4200D259
:102C6800636A5B1A002B41D0206A10F8213013F0F8
:102C7800030200EB81093CD0022A04D150F821203C
:102C88005FEA920A05D1DA0720D4E36948469847F3
:102C98008246A168524620460BF0D4F95146A060FE
:102CA80020460BF0DDF92F46304608F0DFFB10BB5D
:102CB800194A1D491A484FF499730BF092F9314695
:102CC8001A480BF08EF94FF49971BCE743F00203F0
:102CD80000F821304846E369A56898472946024626
:102CE80020460BF0AFF90025A060DDE71D46A94698
:102CF800DAE71546FBE788F31188BFF36F8F002DDD
:102D08008AD137B1B9F1000F03D104F12C0006F0D4
:102D1800FDFF4846BDE8F087EE3201081B33010885
:102D28001D2A010830330108463301085D330108C4
:102D38002DE9F0410446C36908460D46984704F159
:102D480014060746EFF31188102383F31288BFF3A4
:102D58006F8F304608F07CFB68B9284A2849294813
:102D680084230BF03EF9314627480BF03AF98421C9
:102D780022480BF02DF9304608F08EFB2B7823F013
:102D880001032B7023699B0705D5E268236A03EBCF
:102D980082039D4222D12B7823F002032B70D4E9C1
:102DA8000231994204D13A4620460BF04BF9A06013
:102DB800394620460BF054F9304608F057FB90B9D5
:102DC8000E4A12490F484FF499730BF00AF931462D
:102DD8000F480BF006F94FF49971C9E72B6867F3B0
:102DE8009F032B60E8E788F31188BFF36F8F04F126
:102DF8002C00BDE8F04106F089BF00BFEE320108A3
:102E08001B3301081D2A0108303301084633010825
:102E18005D33010870B5044600F11405EFF311861F
:102E2800102383F31288BFF36F8F284608F010FB36
:102E380068B91B4A1B491C4884230BF0D2F8294661
:102E48001A480BF0CEF8842115480BF0C1F8284633
:102E580008F022FB2369A0681B0702D46368834239
:102E680013D2646A241A284608F000FB78B90C4A81
:102E78000F490D484FF499730BF0B3F829460D48E4
:102E88000BF0AFF84FF49971DEE71C1AEBE786F305
:102E98001188BFF36F8F201E18BF012070BD00BFBF
:102EA800EE3201081B3301081D2A010830330108DE
:102EB800463301085D3301082DE9F04F0D468BB00C
:102EC8009046044658B95249524A534840F2F513BD
:102ED8000BF087F840F2F5114E480BF079F80368CB
:102EE8004BB94E494B4A4C484FF4FB730BF079F8F9
:102EF8004FF4FB71F0E700F10C07EFF3118A102390
:102F080083F31288BFF36F8F384608F0A1FA60B9CF
:102F1800434A4449404884230BF063F83946424801
:102F28000BF05FF884213E48D7E7384608F0B4FA3A
:102F3800B8F1000F60D0002D5ED02268AA425BD3A2
:102F4800202A0CD96668002086424FEA401B37D0F9
:102F5800A36853F82030591C2BD10130F4E7A0683E
:102F68002946006800230BF0E0F9011E14DA6FF01F
:102F78001B04384608F07AFA002840D1284A2B4921
:102F880025484FF499730BF02CF8394628480BF074
:102F980028F84FF49971C6E7A0680123AB4002688E
:102FA800013B8B401A4302608B46C8F800B00024EE
:102FB800DFE72BB1DB4393FAA3F3B3FA83F39B4424
:102FC800561B0DF11009B345D1D803ABCDE90093D9
:102FD8002A460023594620460BF02DF940B1CDF87A
:102FE800009001232A46594620460BF056F9DCE7A3
:102FF800039901F1010BE6E76FF01504B9E78AF3CD
:103008001188BFF36F8F20460BB0BDE8F08F00BF6B
:103018009A330108723301081D2A0108B2330108E6
:10302800EE3201081B33010830330108463301082A
:103038005D3301082DE9F04701F1FF3988B00F46EB
:1030480090469144044658B94349444A44484FF489
:1030580025730AF0C6FF4FF4257140480AF0B8FFFF
:1030680003684BB93F493D4A3D4840F295230AF071
:10307800B8FF40F29521F0E700F10C05EFF3118657
:10308800102383F31288BFF36F8F284608F0E0F906
:1030980060B9354A3549324884230AF0A2FF2946E7
:1030A80033480AF09EFF84212F48D7E7284608F0C6
:1030B800F3F9002F45D02368BB4242D3434540D99A
:1030C8004B453ED9202B23D80123A168BB40013BA7
:1030D80003FA08F20B6803EA02009A4313D06FF070
:1030E8000D04284608F0C2F970BB1F4A21491C4844
:1030F8004FF499730AF075FF29461F480AF071FFCB
:103108004FF49971D0E723EA00030B600024E8E745
:103118004FF000090DF1080ACDF80490CDF800A091
:1031280001233A46414620460BF085F80028D6D0C0
:10313800CDF800A04B463A46414620460BF0ADF884
:10314800E4E76FF01504CCE786F31188BFF36F8FBF
:10315800204608B0BDE8F0879A33010872330108A9
:103168001D2A0108B2330108EE3201081B33010899
:1031780030330108463301085D33010882B0094B3A
:10318800002001901A6B42F400121A631B6B064A66
:1031980003F400130193019B536843F00203536047
:1031A80002B0704700380240002004E008B54168CA
:1031B800054883681B680C311BB1984700EAE0702A
:1031C80008BD6FF05700F9E74C0F0108192810B532
:1031D80002D90024204610BD044B53F82040204655
:1031E8000DF032FB0028F5D1F3E700BFDC1F010822
:1031F800084B1A6842F480721A601A6842F4007226
:103208001A601A6842F480621A60034B034A1A6013
:10321800704700BF003C0240540600200024F40020
:1032280008B558B907490848084A40F235130AF062
:10323800D8FE064840F235110AF0CAFE43685879AC
:1032480008BD00BF9E3401081D2A01086634010824
:1032580010B548B908490948094AA0230AF0C1FE2F
:103268000748A0210AF0B4FE03681B6913B1BDE842
:1032780010401847184610BD9E3401081D2A010841
:10328800663401082DE9F843DFF844800446064611
:10329800012794FAA4F5B5FA85F507FA05F308EBC2
:1032A80005156FEA030924EA03042B7B5BB1284662
:1032B800FFF7CEFF38B96B6804221968284606EA7A
:1032C80009060BF029F9002CE3D13046BDE8F88354
:1032D8005C1C010810B50F490F4888B000220DF09A
:1032E800A4FB00220023CDE9062300240E23CDE908
:1032F8000334CDE90144094B094900944FF40062B5
:10330800084806F05BFF0849064806F079FE2046A3
:1033180008B010BD11340008700F0020593700089C
:1033280080210020700A0020B53401082DE9F047FB
:10333800DFF8D0902C4CA9EB04038F2B80460F4666
:103348000BD92A492A4A2B4840F253130AF049FE5E
:1033580040F2531126480AF03BFE27480BF0B8F814
:10336800064660B300252846BDE8F087237B8BB16D
:103378002368DB680BB1204698476368204683F8CA
:1033880006A0FFF765FFB0B96368042219682046F4
:103398000BF0C2F8013610344C4514D91749144AB9
:1033A800144840F25F130AF01CFE15480AF019FE93
:1033B80040F25F11CEE70AFA06F31D43EAE7054635
:1033C8004FF0010AE8E7D1D3B8F1000FCBD0002DB8
:1033D800C8D02846FFF756FF0546002FF7D0002132
:1033E8000A2007F0A3FDF2E75C1C0108EA34010893
:1033F800BD3401081D2A01085C1500201A35010892
:103408003B3501086C1C0108014806F07FBC00BF71
:10341800A0070020014B53F82000704758200108EE
:1034280008B5034608462BB1044A136000F096FD20
:10343800002008BD6FF01500FBE700BF0405002061
:1034480010B5044C237813B9034806F05FFC012338
:10345800237010BDB21A0020A007002010B5044642
:103468000B480BF035F85CB1BFF35B8F094B53E8A1
:10347800001F013943E80012002AF8D1BFF35B8F1F
:10348800054808F02BFC0548BDE8104006F03EBC96
:103498005415002058150020700F0020A0070020A8
:1034A800064BBFF35B8F002253E8000F43E800216F
:1034B8000029F9D1BFF35B8F704700BF5415002076
:1034C80070B5FFF7EDFF114C114E0546B4421AD9FD
:1034D8001049114A114840F216230AF082FD10489B
:1034E8000AF07FFD0C4840F216210AF071FD2046D3
:1034F800FFF796FE28B123685B6813B1294620467A
:1035080098471034E2E7F2D370BD00BF5C1C010895
:103518006C1C01081A350108BD3401081D2A010870
:103528003B35010810B5044C04492046FFF720FA42
:10353800034B1C6010BD00BFAC06002044200108EE
:1035480048150020154A1648002310B51370154A6F
:103558001360154A4FF47A711360FFF761FFFFF7A4
:10356800E1FF124B124918468B4215D91149124AEC
:10357800124840F22B130AF034FD11480AF031FDCD
:103588000D4840F22B110AF023FD1A1A5C6812113B
:10359800013222711033E7E7F7D310BDB31A0020C8
:1035A800F3E4000854150020581500205C1C01089D
:1035B8006C1C01081A350108BD3401081D2A0108D0
:1035C8003B3501080146002201480023FFF702BAF3
:1035D800AC0600200148FFF719BB00BFAC0600206D
:1035E800024B01461868FFF7A3BB00BF481500202F
:1035F8000148FFF70FBC00BFAC06002070B52D4B8B
:103608001B78002B54D0FFF7E5FF044600283BD178
:10361800294B2A4D1B68002B0EDD0DF004FAD5E965
:103628000032C01A40F2E93361EB0201984271F1AD
:10363800000101D3FFF744FFD5E9003213F57A738F
:1036480042F10002C5E9003294B3BDE87040FFF7CB
:10365800CFBF2846FFF7E4FD20B12B6821461B6841
:10366800284698471035B54211D91549154A1648C4
:1036780040F20A230AF0B5FC14480AF0B2FC1148DB
:1036880040F20A210AF0A4FC114D124EEBE7E0D3F8
:103698002046FFF7A5FFBFF35B8F0F4B53E8001FD2
:1036A800013943E80012002AF8D1BFF35B8FAFE776
:1036B800002070BDB21A002054150020680F0020A9
:1036C8001A350108BD3401081D2A01083B350108D7
:1036D8005C1C01086C1C01085815002070B5154DBC
:1036E800297831BB0120FFF721FE134C134EB44259
:1036F80018D91349134A144840F2CF130AF071FC41
:1037080012480AF06EFC0F4840F2CF110AF060FC34
:103718002046FFF785FD18B1236820469B68984727
:103728001034E4E7F4D3FFF769FF0028FBD1012345
:103738002B7070BDB31A00205C1C01086C1C0108BA
:103748001A350108BD3401081D2A01083B35010856
:103758002DE9F843374F384BFB1A1B090AD1374973
:10376800374A384840F2BB330AF03BFC40F2BB31E1
:10377800334819E000210846FFF7D8FD0446A8B1F0
:103788004FF032084FF000092F4B1B789BB92F4997
:103798002F4A2C4840F246330AF023FC2D480AF001
:1037A80020FC2B4840F246310AF012FC4FF0FF385B
:1037B8004FF0FF39E8E701F025FA274B274A1B5855
:1037C800136033B1264B1B68092B02DD254806F030
:1037D8009DFA002544B12046FFF754FD044618B968
:1037E8004FF0FF384FF0FF39FFF708FF064628B9BA
:1037F80035B91C4842464B4606F006FB3546E9E714
:103808000D4D08E0F5D22B689B691BB100221146CB
:10381800284698471035BD42F4D91349084A094843
:1038280040F2AF330AF0DDFB10480AF0DAFB40F251
:10383800AF319DE76C1C01085C1C01085A35010872
:10384800BD3401081D2A0108C91A0020A135010844
:1038580076350108B435010808000000501500202D
:1038680058150020A00700201A3501083B3501082B
:1038780013B52C480AF02CFE2B4B1B78002B35D0A7
:10388800EFF31184102383F31288BFF36F8F274857
:1038980007F0DEFD68B9264A2649274884230AF03E
:1038A800A0FB224925480AF09CFB842120480AF005
:1038B8008FFB1E4807F0F0FDFFF7A0FE1B4807F03E
:1038C800D5FD68B91A4A1E491B484FF499730AF086
:1038D80088FB16491B480AF084FB4FF49971E5E709
:1038E80084F31188BFF36F8F02B010BD164B1B68AD
:1038F800002BF9D050B900220023CDE9002313484A
:103908004FF47A72002308F07BF9EDE70928EBD130
:103918000E4808F0E3F90E4802B0BDE8104006F082
:10392800F5B900BF58150020B31A00204C15002027
:10393800EE3201081B3301081D2A01083033010843
:10394800463301085D33010850150020700F002030
:10395800A007002010B5064B1B680446984721466F
:10396800A0600448FFF7FAF8BDE81040FFF780BFF1
:1039780004050020AC060020044A054B9B1AB1EB55
:10398800D30F34BF52F8310000207047141B0108D0
:103998005C1C01082DE9F04F8FB004AFC1F34A2633
:1039A800B8600D4690467B600C0D002E66D04FF037
:1039B80000090A234FF0040B07F1140AFE60C7E957
:1039C8000799C7F824900093CDF808B0CDF804A063
:1039D80007F11C03F9684A464046FEF7A1FDB0F519
:1039E800006F03461CD36C468AB0D8F8041004ABA9
:1039F8002B48C3E9050140F2FF71D9611A464FF41B
:103A080000711984274B42F8103F27484B464FF462
:103A18001251FFF7BFFFA5462C37BD46BDE8F08F12
:103A2800C0F30A0604F11700184420F007008008C4
:103A38003B60FFF7C7FD66F35325044630B33B6888
:103A48001A4A00F11001C7E90839F961CDE901AB5B
:103A58000A230093F96807F11C034046FEF760FD4E
:103A6800002813DA12491348134A40F249130AF09E
:103A7800B8FA114840F249110AF0AAFA04F11700FD
:103A880020F007008008FFF79DFD044666F35325E4
:103A98007B68B9682A4620460AF05EFDBCE700BF8D
:103AA800E335010804000001AC1B010833E50008F8
:103AB8004F3601081D2A0108223601082DE9F04F6A
:103AC80087B0DDE9127ADDE9106B054688461446B1
:103AD80099462FB3CDF800A03B465A461021002046
:103AE800CDF814A0FEF73CFB00280BDA2749284A3A
:103AF80028484FF4B4730AF074FA4FF4B4712448A8
:103B08000AF066FAB0F5006F01460BD3224A234843
:103B180040F2FF73022107B0BDE8F04F0AF075BD0F
:103B28003946384604F0070305F00704E40044EA80
:103B3800831444EA402444EA065406F11700084472
:103B480020F0070080080391FFF73CFD0546A0B16F
:103B58009FB10399CDF800A03B465A461030FEF7B6
:103B6800FFFA002809DA0949094A0A4840F28D1380
:103B78000AF037FA40F28D11C1E74B46224641461A
:103B8800284607B0BDE8F04F0AF0E6BC4E360108FB
:103B9800223601081D2A010858360108AC1B010805
:103BA800406820B1034BC01A40F3CF0070474FF074
:103BB800FF307047141B01080EB403B503AB014670
:103BC80053F8042B0448019301F03CFA02B05DF865
:103BD80004EB03B0704700BF013C0008CA0605D4D7
:103BE8008B064CBF02490349FFF7E6BF704700BF89
:103BF8008B540108C92D010838B54B681A68CB6881
:103C08009A4205460C4602D108460AF022FD63682E
:103C1800BFF35B8F53E8002F511C43E800100028C6
:103C2800F8D1BFF35B8FA3689D5463681A68E36893
:103C38009A4209D905490648064A72230AF0D1F979
:103C4800044872210AF0C4F9002038BDBF360108C3
:103C58001D2A0108903601082DE9F04F89B09946D0
:103C6800159B0693DDE916A39DF85080189F0592D1
:103C780004460D460493B8F1000F00F0A180B8F196
:103C8800040F0BD98749884A88484FF415730AF0FE
:103C9800A8F94FF4157184480AF09AF907F480736B
:103CA80007930AF037FC07F0020B0246002856D0AB
:103CB8007F492046FFF780FF0646BBF1000F08D07A
:103CC80017F0440F4DD17B492A462046FFF774FF71
:103CD800064407F0010353B1774B784953F828207D
:103CE800774B2046002A08BF1A46FFF765FF07F4FE
:103CF8008073002B07F0080318BF4FF00009002B52
:103D08005BD0704B704953F828202046FFF754FFCA
:103D18000546059B2BB16D491A462046FFF74CFF17
:103D28000544B9F1000F05D069494A462046FFF716
:103D380043FF054467483544069B002B47D0664936
:103D480022460AF0E6F8002841DA6449564A5748FC
:103D580040F2B1230AF045F940F2B1219BE706464B
:103D6800ABE75F4B18680028B2D05E4B4FF47A7B04
:103D78001B68B5FBF3F54FF46163B5FBF0F100FB8D
:103D880011550BFB05F54FF03C0CB1FBF3F203FBAF
:103D98001211B5FBF0FEB1FBFCF300FB1E550CFB4A
:103DA80013110BFB05F50091B5FBF0F54E49CDE974
:103DB80001E52046FFF700FF8AE707F00805A8E7B6
:103DC800B9F1010F0CBF434848484546B4E7049B86
:103DD800002B52D0049B102B28BF102339462046B5
:103DE8009946FFF7FBFE0026B54218DC002633464D
:103DF8001AF803203E492046FFF7DEFE0136102E52
:103E080013D0710703D13B492046FFF7D5FE4E4535
:103E18003346EDD338492046FFF7CEFEEEE7354965
:103E28002046FFF7C9FE0136DEE734492046002662
:103E3800FFF7C2FE33461AF803203149A2F12003E6
:103E48005F2B28BF2E222046FFF7B6FE0136102E24
:103E58000DD0720703D127492046FFF7ADFE4E4526
:103E68003346E8D323492046FFF7A6FEEEE7049B36
:103E7800B3EB0903CA440493ACD1B8F1000F0AD0DC
:103E8800FB0704D50E4A0D492046FFF795FE394633
:103E98002046FFF7A3FE204609B0BDE8F04F0AF020
:103EA800D8BB00BFF4360108903601081D2A010866
:103EB800FF3601080337010868200108DF490108B7
:103EC800EF3601087C200108283701082E37010841
:103ED80032370108013C00084D5000083737010807
:103EE80064150020601500200C37010875E60008ED
:103EF8004037010848370108463701084A370108A2
:103F08004C37010873B542F20F738B4228BF0B463A
:103F180005680F4A04460521684607F0D3FF636821
:103F28000C495B6806460B2228460AF084FB636846
:103F38003246694628465B680AF07DFB6368064995
:103F48005B681B2228460AF076FB02B070BD00BFF2
:103F58006E2C0108725C0108565C0108074A0021B2
:103F68000123904206D8064A01B901231360054B84
:103F78001860704740085B000121F2E740420F00DB
:103F88006015002064150020014B01221A7070474B
:103F9800B41A0020014B0020196070477C150020DE
:103FA8000148FFF7AFBF00BFAC20010810B5064BB2
:103FB80018680C46FFF72EFA21460346BDE8104064
:103FC80002480F22184700BF7C150020AC200108CA
:103FD800F8B5094D094B0A4ED5E9004701221A7078
:103FE8000CB92C60F8BD214630463A4600F01EF860
:103FF800241A0644F4E700BF70150020B51A002003
:10400800B61A002010B9074B18707047064B1B787A
:104018001BB141F288300CF009BC0520002106F0E4
:1040280085BF00BFB41A0020B51A00202DE9F0475B
:10403800DFF884901F4E80460F46042599F800400B
:10404800ACB90CF0E6FB3A4682464146204605F0FC
:1040580053F8044650460CF0E4FBECB101233370EE
:1040680099F800307BB93C462046BDE8F0873A46CF
:104078004146002005F040F80446EEE72846FFF7E1
:10408800C1FF6C1E2546002005F0C6F80028EAD0BE
:104098003378002BF2D1E6E7337833B1013D284677
:1040A800FFF7B0FF3378002BC8D13378002BDAD074
:1040B800DAE700BFB41A0020B51A0020014B0360EC
:1040C80000207047BC20010880B505460E461746FB
:1040D800984606F0ABFF034600F094FDDFF85090D9
:1040E800044649F80030424639463046A8470B4B4B
:1040F8001B7873B90A490B4A0B4840F2463309F05A
:1041080070FF0A4809F06DFF064840F2463109F091
:104118005FFF54F8090000F0F1FC00BFC91A002045
:10412800A1350108763501081D2A0108B4350108B2
:10413800080000000648074A08B5121A00210AF0CC
:10414800D9FA0548054A0021121A0AF0D3FA08BD1F
:1041580058090020CC1A002000000010000B0010A5
:104168000A480B4A0B4908B5121A0AF0C5FA0A4858
:104178000A4A0B49121A0AF0BFFA0A480A4A0B49B6
:10418800BDE80840121A0AF0B7BA00BF00050020BF
:1041980054090020245D0108B8040020000500200F
:1041A800DC5C0108000B0010000B001078610108AE
:1041B8002DE9F84F804600AF0C46002965D0E94646
:1041C8008AB0D1E90012A3686D4639486E464FF0AF
:1041D800050ACDE90501CDE9072346F810AF3548B2
:1041E800324600234FF42151FFF7D4FBCD46D4E9E2
:1041F80003126369AD463048C5F810A0C5E905014A
:10420800C5E907232B48002332464FF42151FFF715
:10421800C1FBCD46E369294A2648DFF8B0B0012141
:104228000AF0F3F9264600254FF00A0AE9468EB04F
:10423800D6E908C0D6E90A136A46CDF81CC005F1CC
:10424800010CCDE908C0A81CCDE90A01E91CCDE99B
:1042580005B5CDE90C1342F810AF1648002345F216
:1042680040010435FFF796FB102DCD4606F11006E8
:10427800DCD1236E124A0F4801210AF0C6F9A3695E
:10428800104A0C4801210AF0C0F9B8F1010F07D112
:10429800EFF305830C4A0748103B41460AF0B5F98D
:1042A8002146404605F01AF8BD46BDE8F88F00BF24
:1042B8007F370108CC1B0108AE370108DD3701083C
:1042C8002F3801083E3801086C380108EC3701081E
:1042D80030BFFFF7FDBF00BF2DE9F0410B4EDFF8FF
:1042E800348006EB0807CC1B0546324608492046B1
:1042F8000CF0B9FBA01942460021083C0CF0C1FBA8
:10430800C5F8A44007F10800BDE8F08100000000EE
:104318008C1C01080400000010B5204C20492148DD
:104328000AF007FAA36A990136D51E481E490AF011
:1043380000FA1E20A36ADA0104D51A481B490AF0BC
:10434800F8F91F20154CA36A1B0304D51548184912
:104358000AF0EFF92120A36A590304D51148154939
:104368000AF0E7F922200D4CA36A9A0304D50D48F8
:1043780011490AF0DEF92320A36ADB0304D50948B2
:104388000E490AF0D6F92420044A936A6FEA0343D7
:104398006FEA1343936210BD1D20CBE700ED00E0E8
:1043A8007F380108CC1B010897380108AA38010892
:1043B800C4380108E2380108073901082139010821
:1043C80070B506460D46284C284929480AF0B1F927
:1043D800A36AD9043CD5264826490AF0AAF9172029
:1043E800A36A1A0504D5224823490AF0A2F918201D
:1043F8001D4CA36A9B0512D51D4820490AF099F95E
:10440800A36BA26A100409D51D4A194801210AF0B4
:10441800FCF81EB1A36A23F40043A3621920124CCE
:10442800A36A590504D5124816490AF082F91A20D8
:10443800A36ADA050ED50E4813490AF07AF91B204B
:10444800094A936A43F47F43936200232B7070BD3B
:104458001620C5E7A36A9B04F2D505480B490AF064
:1044680068F91C20ECE700BF00ED00E04C390108BA
:10447800CC1B010862390108733901088639010823
:104488009F390108B4390108CF390108E739010813
:104498002DE9F8438046894617463E4D3E493F4838
:1044A8000AF047F9AB6ADA0627D53D493B480AF0D6
:1044B80040F91124AB6A1B0704D53A4937480AF07A
:1044C80038F91224334DAB6A9E0718D5364933485C
:1044D8000AF02FF96E6BAB6A1C0646D5334A2F4893
:1044E800334601210AF091F8B9F1000F03D0AB6A05
:1044F80023F08003AB62132403E01024DAE76FF0A3
:104508001506244DAB6AD80704D5294923480AF073
:1045180010F91424AB6A990604D526491F480AF0F5
:1045280008F915241B4DAB6ADA0602D4AB6A9B075F
:104538000AD56B68180507D54146304600F060FA81
:10454800B0B180F309880224124B9A6A920642BFDE
:104558005A6A22F400525A629A6A42F0FF029A6238
:1045680000233B702046BDE8F8836FF01506C2E7CC
:10457800AB6AD906E8D51049104A114840F227130A
:1045880009F02FFD0F4809F02CFD0C4840F22711C7
:1045980009F01EFD00ED00E0163A0108CC1B0108E9
:1045A8002C3A0108733901085F3A0108773A010883
:1045B8008D3A0108E7390108DE3A0108AC3A0108EA
:1045C8001D2A0108283B0108F0B5784B9DB0054627
:1045D800586800AFC0F30803002686F31188BFF3BC
:1045E8006F8F02F07F44B4F17F4F07D102F00C04C3
:1045F800082C12D16E496F480AF09BF86E496F4A31
:104608006F4840F21B4309F0ECFC6E4809F0E9FCE6
:1046180040F21B41694809F0DBFC14074CBF0D460A
:104628000126002DEAD00022FA71DA1E092A00F2CA
:104638009D80DFE802F0059396769B9B9B9B9B9958
:1046480061495C48594C0AF074F80023FB71E36A2D
:104658009A0705D55D4957480AF06BF800242DE004
:10466800E36A002B01DA5A49F5E7E36A5B0068D58B
:10467800584950480AF05DF86369AA6943F48073A1
:104688006361BFF34F8FBFF36F8F32F8023C6269EB
:1046980022F480726261BFF34F8FBFF36F8F03F410
:1046A8007F42B2F55F4F24D1DBB2022B21D12B68B8
:1046B800494A4048012109F0A8FF2C68FB79ABB9A9
:1046C8006822294607F108000CF0CDF97B6A002E14
:1046D80069D0C3F3080222B96FEA53236FEA432370
:1046E8007B6207F108012046FFF762FD7437BD467B
:1046F800F0BD2E4B9A6AD2B232B1FA1D012128467A
:10470800FFF7C6FE0446D9E79A6A12F47F4F04D031
:10471800F91D0120FFF754FEF4E79B6AB3F5803FCB
:1047280002D3FFF7F9FDEDE72C49244A244840F26B
:10473800ED2309F056FC2A4809F053FC40F2ED211C
:1047480068E726491D4A1E484FF43C7309F049FCA6
:10475800244809F046FC4FF43C715BE7FA1D002140
:10476800CDE7F91D0020D5E71F4974E71F4A204906
:1047780010F4F87F6C468AB018BF11466A46103BA1
:1047880007931C484FF40073ADF820301A4BCDE95D
:10479800050142F8103F074800234FF41151FFF775
:1047A800F9F8A5465AE76FF3080399E700ED00E02A
:1047B800793B0108CC1B0108A43B0108AC3A01086D
:1047C8001D2A0108B73B0108F53B01080C3C01080C
:1047D8002D3C01083B3C01085A3C01087351010873
:1047E800763C01089A3C0108CA3C0108603B010874
:1047F8004B3B0108EE3C010804000001044B5A69D8
:1048080042F010025A615A6922F008025A61704750
:1048180000ED00E0EFF30880EFF3098101B572467F
:10482800FFF7D2FE01BD00BF0A4880F308881020B8
:1048380080F3118808484FF40861401880F309880C
:10484800EFF314800221084380F31488BFF36F8FBD
:1048580000F066F800460020003300201EF0040F28
:104868000CBFEFF30880EFF30980816911F8021C8F
:104878000229FFD001B5724609F050FF01BD00BF03
:1048880040B2002807DB044A4109012300F01F0059
:10489800834042F82130704700E100E038B54B1CF6
:1048A8000F2B04460D460FD9114A124912486B23A3
:1048B80009F097FB114829460F23224609F091FB7E
:1048C8000B486B2109F084FB40B20028ACBF00F113
:1048D80060400B4A4FEA0313B8BF00F00F00DBB289
:1048E800AABF00F56140135480F8003338BD00BFFB
:1048F800013D0108383D01081D2A0108533D010802
:1049080014ED00E0044B054A23F07F039360BFF3E6
:104918004F8FBFF36F8F70470000000800ED00E075
:1049280008B5FFF7EFFF104BD3F8882022F4700288
:10493800C3F88820D3F8882042F4A002C3F888205E
:104948004FF04042C3F83422BFF34F8FBFF36F8F4D
:104958000023E1EE103AFFF7EDFBFFF701FC00F052
:1049680033F904F01DFE00BF00ED00E04FF47D4177
:10497800C0F8F01042F8203C009B42F81C3C0A4961
:10498800019B42F8183C029B42F8143C21F00101BB
:104998004FF0807342F8043C42F8081C0023203A88
:1049A8000265C0F8A8307047D1400008838913F029
:1049B800020F124B03D190F8F120D20611D45A6B92
:1049C80042F080425A63D0F8F03019075CBF43F0D8
:1049D8000803C0F8F030838943F002038381802004
:1049E80070475A6B22F080425A63D0F8F0301A07A9
:1049F80044BF23F00803C0F8F030F0E700EF00E010
:104A08000A4A0346906878B113F1160FD0F894005B
:104A180005D0A0F18002934205D3834203D281429C
:104A280028BF002070470020704700BF641A00208C
:104A3800104B9B6883421AD1EFF30580B8B9EFF3A6
:104A48001181102282F31288BFF36F8F9A8922F0A6
:104A580002029A81EFF3148323F0040383F314888A
:104A6800BFF36F8F81F31188BFF36F8F70476FF0BB
:104A780015007047641A002008B515460E46002236
:104A8800E1EE102AEFF3148222F0040282F3148874
:104A9800BFF36F8FBFF36F8F0B4A0C4B9060D0F84A
:104AA800A4201A6000F0C0F82C4686F3098800207C
:104AB800034B98472046002100220023014C204741
:104AC8004FE70008D1400008641A00208015002034
:104AD800014B10221A61704700ED00E0054B9A69FE
:104AE8009B689A421FBF044A536843F0805353603F
:104AF800704700BF641A002000ED00E0084B9B6877
:104B080083420BD1EFF3058343B1064B5A6842F059
:104B180080525A605A6A22F400425A6206F08CBAED
:104B2800641A002000ED00E024498A6882F8F1E068
:104B38004FF030001044EFF3098C80E8F01F1EF0AE
:104B4800100F03D102F1B00080EC108A102080F31E
:104B58001288BFF36F8F1A4F4FF000668A698A6018
:104B68003E60D2F8A400174C206092F9F1E0D2F828
:104B7800A8000023C2F8A83080F311881EF0100F97
:104B880003D00023E1EE103A03E002F1B00090EC0C
:104B9800108AEFF3148323F0040383F31488BFF31C
:104BA8006F8F04B5104600F03FF8BDE8044002F1ED
:104BB800300090E8F01F8CF309887047641A0020D1
:104BC80004ED00E080150020044800231021C218DD
:104BD80001334A2B82F80013F9D1704700E100E055
:104BE80008B5EFF30583064A103B02EBC30152F800
:104BF800330049688847BDE80840FFF76FBF00BF2A
:104C080098110108014800687047000080150020CD
:104C1800024B034A0348012100F090B8000002202B
:104C280000000020BC20010810B50446FFF7BEFEB6
:104C3800D4F8942003460548D21AC0E90023044B4F
:104C48008360BDE81040012100F09EB88415002063
:104C580000000B1508B503461048D0F89020C2F3A1
:104C68000722013A934207D90D480E4A012109F05B
:104C7800CCFC6FF0150008BDC0F898300A6822F027
:104C88001F021A4342F01002C0F89C208A6842F0C2
:104C98000102C0F8A0201846EDE700BF00ED00E0D3
:104CA800C41B0108973D0108F0B50E4685B01F46A4
:104CB80004460025B5420DDA606810B397B1431E6B
:104CC80018420AD0104A11482B46012109F09DFCD0
:104CD8006FF01502104605B0F0BD7F28F2D92168A3
:104CE8000B42EFD12368019309F041FDA36801A9A4
:104CF8000343D0B20393FFF7ADFF10F1160FE7D0CF
:104D0800421C01350C34D5E7BD3D0108C41B010820
:104D1800044B0522C3F89420BFF34F8FBFF36F8F66
:104D2800704700BF00ED00E0BFF35F8F024B002229
:104D3800C3F89420704700BF00ED00E038B50D4D72
:104D480001232A780C46FFF7AFFF287016300FD1E1
:104D5800094A0A490A4840F2891309F042F9094800
:104D6800214609F03EF9044840F2891109F030F96A
:104D780038BD00BFC61A0020E33D01087351010881
:104D88001D2A0108123E010810B5144A00231278A2
:104D98000C46FFF789FF10F1160F08D0104A0021C2
:104DA800D2F89030C3F30723984210DB10BD0D4AA8
:104DB8000D490E484FF4D47309F013F90C482146F5
:104DC80009F00FF907484FF4D47109F001F9C2F856
:104DD8009800C2F8A0100130E2E700BFC61A002010
:104DE80000ED00E0E33D0108735101081D2A0108A8
:104DF8003E3E01082DE9F04F834C8449D4F89030A9
:104E08000D68C3F307239D4285B013D9804A8149B1
:104E1800814840F2022309F0E4F8D4F890207F4852
:104E28002946C2F3072209F0DCF840F2022178484B
:104E380009F0CEF8FFF778FF49680022954201F1A2
:104E48000C012DD1764F774C3D706846FFF736F947
:104E5800754D764E81464FF00008C14533D13B78F9
:104E680069490020D1F89020C2F307229342C0F28A
:104E7800C180FFF74DFFD1F8903003F47F43B3F5BD
:104E8800006F00F0BD806A49614A634840F27D23A3
:104E980009F0A7F8674809F0A4F840F27D21C6E7B1
:104EA800C4F8982051F80C3C23F01F03134343F037
:104EB8001003C4F89C3051F8043C43F00103C4F8D3
:104EC800A0300132BAE7009A02EB08134FEA081142
:104ED800D3F80CA00AEA0400B0F5000F66D00BD88E
:104EE800B0F5001F3CD0B0F5800F52D0B0F5801F50
:104EF80016D008F10108B0E7B0F1007F61D0B0F139
:104F0800805F69D0B0F1807FF3D19868D3F804A0AE
:104F1800525809F02CFCCDE901A240F088700BE052
:104F28009868D3F804A0525809F021FCCDE901A2F1
:104F380040F0885040F430200390387801A9FFF7FA
:104F480089FE002852DA3349314A334840F2352382
:104F580009F047F8384809F044F840F2352166E787
:104F68009868D3F804B0525809F001FC1AF0010F00
:104F780040EA0600CDE901B20390DED02F49244A69
:104F88002548842309F02DF82D4809F02AF88421B2
:104F98004DE79868D3F804A0525809F0E8FB40F0B0
:104FA800C060CDE901A240F40030C5E79868D3F8A5
:104FB80004A0525809F0DBFBCDE901A240F0827051
:104FC800BAE79868D3F804A0525809F0D0FBCDE9A5
:104FD80001A240F48020AFE79868D3F804A05258A3
:104FE80009F0C5FBCDE901A22843A5E73B780133C9
:104FF8003B707EE7C1F89830C1F8A000013331E773
:10500800002005B0BDE8F08F00ED00E0C8200108E1
:10501800E33D0108735101081D2A01086B3E010890
:10502800C61A00200000F0FF00000211000008115D
:105038001E3F01086E3F0108F43E01089F3E01082B
:10504800C53E0108F0B587B007460E461446002154
:10505800102268461D460BF014FD02238DF802301D
:105068002A46054B019321466846CDE9047606F0A9
:10507800E3FF07B0F0BD00BF97E7000808B5024B93
:105088001B689847002008BD90150020034B044A70
:105098001860937843F002039370704790150020CE
:1050A8000805002008B50649064821F00701C1F1A6
:1050B800005202F50032FCF73FFF002008BD00BF98
:1050C80067470020941500200378012B024618D169
:1050D800438813F0040015D0536983B1916BC969F3
:1050E800087989685B1A43FA00F11369C3400648D6
:1050F80000EA012040EA035040F0010070471946D9
:10510800F5E70020704700BF00FF0F0070B5438827
:105118001B0704460A4605D56FF08B01BDE87040B1
:1051280009F0C3BB856885BB0378062B0ED00C2B12
:1051380012D0042B26D10146D0E90463806BB04716
:1051480029462046BDE8704009F05ABCBDE87040C9
:10515800D0E9042300F000B90E4BC0E9053510343E
:105168000123BFF35B8F54E8002F002A03D144E8E2
:1051780000310029F7D1BFF35B8F0CBF194600211E
:10518800E0D170BD6FF01501C8E72B68BDE870402D
:105198001B6818470FEA00082DE9F041054600F1A1
:1051A8002007384609F0FEFA044608B9BDE8F08140
:1051B80034F82E3CA5601A07A4F1300844BF43F028
:1051C800280324F82E3C4646718811F0030105D1C6
:1051D800C6E90D154046FFF799FFE2E734F82E3C83
:1051E80003F00101C3F3400203F0020C03F01000C6
:1051F8004A40C3F3001393420CD11949194A1A487B
:105208006E2308F0EEFE194808F0EBFE6E211548F3
:1052180008F0DEFEBCF1000F02D009B10028ECD185
:10522800A068203009F0BEFA50B911490D4A0E485D
:10523800752308F0D6FE0F4808F0D3FE7521E6E77F
:1052480073881B0748BF30F82E3CA0F1300244BFDA
:1052580043F0280320F82E3C726385601646B3E7B6
:10526800CD3F01089E3F01081D2A01081B40010887
:105278007140010885400108F8B52E4B2E4C0025D9
:105288001026A34227D92D492D4A2E48132308F06A
:10529800A8FE2D4808F0A5FE1321294808F098FE1D
:1052A800196901EB821101F130000D63EFF31181EF
:1052B80086F31288BFF36F8F1F681860386081F318
:1052C8001188BFF36F8F013299899142E8DC14335A
:1052D800D7E70022F8E7FCD31C4B1D4C002510260D
:1052E800A34224D91B49164A1648192308F079FE07
:1052F800154808F076FE1921CFE71869170100EB69
:105308000211C551EFF3118086F31288BFF36F8F36
:105318001F681960396080F31188BFF36F8F0132FD
:1053280099899142E9DC1433DAE70022F8E7FCD3E3
:105338000020F8BDB4080020040900200941010834
:10534800DE4001081D2A01083B3501080409002038
:10535800540900202D4101080021C0E90611024925
:10536800183006F023B900BF15EA000810B509483F
:105378004FF0FF324FF0FF3304F03EFC04460028A4
:10538800F5D0D0E90C0398470348214604F0BAF950
:10539800EDE700BFB0070020EC060020D0B51C4A9E
:1053A8008CB010685168128909AB03C300261A80B3
:1053B80000270024CDE90667CDE90344CDE901447F
:1053C800144B154900944FF48062144804F0F6FE1B
:1053D80030238DF82C3009A904F012FE0E490F482D
:1053E8000C4B0094CDE90667CDE90344CDE90144AF
:1053F8004FF4806201F59061F83004F0DFFE31234C
:105408008DF82C3009A904F0FBFD20460CB0D0BD66
:105418005141010875530008002A0020A80F0020F8
:1054280007B5084A92E80300CDE9000106488268FA
:10543800126822B16946904703B05DF804FB6FF02B
:105448005700F9E7901C01084C0F010808B500F057
:105458001F0101231F28024603FA01F305D9064854
:10546800064909F0D7FA002008BD054A5269934356
:105478000CBF01200020F7E76C1B01085B41010805
:10548800003C014008B500F01F0101231F28024617
:1054980003FA01F306D90548054909F0BBFA6FF08C
:1054A800150008BD034A00205361FAE76C1B010888
:1054B8005B410108003C0140044B184400230133C0
:1054C8008B4200F8012BFADB704700BF640600200E
:1054D8002DE9F041104F054600264FF001086B7882
:1054E800F4B2A34201D8BDE8F0812B781C442046D1
:1054F800FFF7ACFF68B12046FFF7C4FF57F8343018
:105508003BB107EBC40204F01F04516808FA04F029
:1055180098470136E3E700BFA015002008B510B191
:10552800431E03420CD00E490E4A0F48602308F070
:1055380058FD0E4808F055FD60210A4808F048FD5E
:10554800B0FA80F0C0F11F000F2807DD0849054AAE
:105558000548612308F045FD6121EEE7C0B208BDAA
:105568001F420108DD4101081D2A010854420108B3
:105578007D42010810B50446FFF7D0FF044B1856CA
:10558800044B1A6814431C60BDE81040FFF778B953
:1055980064060020003C0140024A136823EA000325
:1055A80013607047003C014008B5174B03291ED80B
:1055B800DFE801F0020B0E169A6822EA00029A60F0
:1055C800DA6822EA0002DA6008BD9A680243F6E760
:1055D800DA680243DA609A6822EA00029A60F3E71E
:1055E8009A6802439A60DA681043D860ECE7074982
:1055F8000748084A4FF4817308F0F3FC05484FF454
:10560800817108F0E5FC00BF003C014073510108BE
:105618001D2A0108DD41010838B50D461446FFF77B
:105628007DFF0A4B53F83020AA4204D103EBC00196
:105638004968A14205D032B943F8305003EBC003A2
:105648005C60002038BD6FF00F00FBE7A01500205C
:1056580008B5FFF763FF044B002243F8302003EB43
:10566800C0035A6008BD00BFA015002000F0030267
:10567800043292000F23934043EA9000C3B20233EE
:10568800054A52F82320030C02EA104093FAA3F3C8
:10569800B3FA83F3D8407047003801402DE9F04F42
:1056A8000F4689B091461E46D0F808A06D4BD0F839
:1056B80008809A4200F2D280B8F83C40B8F83E30F0
:1056C80001341C44B8F840301C44002A00F0C6805D
:1056D800B6F57A7F80F0C280836807A99B6A9847ED
:1056E800002840F0B8804EB95F4B994537D85F4BDA
:1056F80040F26B36994588BF4FF44876079B039371
:1057080004FB09F4B3FBF4F4BAF838309C4238BF10
:105718001C466FF00043019404FB09FB0493B8F89E
:105728004230019A9A421DDD0498FB88BA885B08CA
:10573800934228BF13463B80BAF83020934204D9DD
:10574800B8F83A209A4228BF1A466FF000439842A8
:105758003A8008BF6FF0850009B0BDE8F08F40F2CD
:10576800EE26CBE7039BB3FBFBF30293DDE90223B1
:105778000BFB12335BBBBDF808200299B8F83C302C
:10578800BAF83650B8F83EE005934FF47A7471438E
:10579800B1FBF4F1511A89B20EEB0300A942BAF831
:1057A80034C0BAF8323080B22C4604D9B8F8405028
:1057B8008D4228BF0D46511E491B89B288420BD223
:1057C800151A013DB8F84020ADB2AA420ED2019B8D
:1057D80001330193CB44A2E70CEB030080B288426B
:1057E80030D9121A013A95B2AC42F0D8B3EB500F47
:1057F8004FEA500203D2059B934228BF1346C21AB0
:1058080092B2964520D2A0EB0E039BB272464FF49B
:105818007A7100FB01100299B0FBF1F0864234BFA7
:10582800811B311A00290846D1DB049C8C42CEDD4D
:105838007B80019BBA80FD803B8100293FF475AFD6
:105848000491C4E70846D1E7944582BFA0EB0C0356
:105858009BB26246DBE76FF004007DE76FF015004E
:105868007AE700BF40420F0000350C0020A1070076
:1058780070B503680C4E43F001030360044603F05F
:10588800DFFA05466368DB0701D500200AE003F06C
:10589800D7FA401BB042F5D9236823F001032360EF
:1058A8006FF00A0070BD00BF80A21900F8B5076943
:1058B800436807F110065D694FF0FF324FF0FF3380
:1058C80030460C4609F056FA3F792FB1304609F0B8
:1058D80053FA6FF00F00F8BD2389E9690E4A013BBE
:1058E8000A40C3F3090313432288013A120602F05F
:1058F80040721343A288013A120402F4702213433F
:10590800E288013A120502F4E00213433046EB61E3
:1059180009F032FA3846DEE700FC80FC08B50A4692
:10592800416809488368DB681C3153B1984738B12E
:10593800064A03460121064808F067FE6FF0040096
:1059480008BD6FF05700F3E74C0F01080443010846
:105958005C1B010822292DE9F0470F4607D93F4A69
:105968003F480B46BDE8F047012108F04EBE0569E7
:10597800D0F804903B48D9F818604FF0FF324FF048
:10598800FF3305F1100809F0F5F94FF0FF334FF038
:10599800FF32404609F0EEF9D9E905439C4214BFAD
:1059A8000E240024062F4FEA870330DC2B44002204
:1059B800C3F88420C3F8D82001223C441546D6F801
:1059C800003243F00103C6F80032002D39D006EB4F
:1059D800C4030021C3F840124FF0FF31C3F844124A
:1059E8003AB1D6F81C320122A24023EA0203C6F8D3
:1059F8001C32D6F8003223F001034046C6F80032C4
:105A080009F0BAF9BDE8F047164809F0B5B9EA183F
:105A1800F91F0023073411F0010504EB6104136337
:105A2800C2F8843005D0D26AB2FA82F252091D4611
:105A3800C5E70C29DDBF526BB2FA82F25209012286
:105A4800BDE717F0010F04F1480308BF06EBC303D5
:105A5800054914BF46F833105960C1E734430108BB
:105A68005C1B0108181700200000FFFFF8B5436809
:105A780006695C6931F00B030D4608D01A481B4AC9
:105A88000B46012108F0C1FD6FF08500F8BD3379A0
:105A980033BB06F110074FF0FF3238464FF0FF33A3
:105AA80009F068F9E369E8074CBF43F0804323F045
:105AB8008043E361E369A9074CBF43F0004323F047
:105AC8000043E36123682A074CBF43F0100323F027
